{
  "contractName": "Receiver",
  "abi": [
    {
      "anonymous": false,
      "inputs": [
        {
          "indexed": true,
          "internalType": "address",
          "name": "previousOwner",
          "type": "address"
        },
        {
          "indexed": true,
          "internalType": "address",
          "name": "newOwner",
          "type": "address"
        }
      ],
      "name": "OwnershipTransferred",
      "type": "event"
    },
    {
      "inputs": [],
      "name": "owner",
      "outputs": [
        {
          "internalType": "address",
          "name": "",
          "type": "address"
        }
      ],
      "stateMutability": "view",
      "type": "function"
    },
    {
      "inputs": [],
      "name": "renounceOwnership",
      "outputs": [],
      "stateMutability": "nonpayable",
      "type": "function"
    },
    {
      "inputs": [
        {
          "internalType": "address",
          "name": "newOwner",
          "type": "address"
        }
      ],
      "name": "transferOwnership",
      "outputs": [],
      "stateMutability": "nonpayable",
      "type": "function"
    },
    {
      "inputs": [
        {
          "internalType": "contract IERC20",
          "name": "token",
          "type": "address"
        },
        {
          "internalType": "address",
          "name": "to",
          "type": "address"
        },
        {
          "internalType": "uint256",
          "name": "value",
          "type": "uint256"
        }
      ],
      "name": "transferERC20",
      "outputs": [],
      "stateMutability": "nonpayable",
      "type": "function"
    }
  ],
  "bytecode": "0x608060405234801561001057600080fd5b5061002d61002261003260201b60201c565b61003a60201b60201c565b6100fe565b600033905090565b60008060009054906101000a900473ffffffffffffffffffffffffffffffffffffffff169050816000806101000a81548173ffffffffffffffffffffffffffffffffffffffff021916908373ffffffffffffffffffffffffffffffffffffffff1602179055508173ffffffffffffffffffffffffffffffffffffffff168173ffffffffffffffffffffffffffffffffffffffff167f8be0079c531659141344cd1fd0a4f28419497f9722a3daafe3b4186f6b6457e060405160405180910390a35050565b6108f88061010d6000396000f3fe608060405234801561001057600080fd5b506004361061004c5760003560e01c8063715018a6146100515780638da5cb5b1461005b5780639db5dbe414610079578063f2fde38b14610095575b600080fd5b6100596100b1565b005b610063610139565b6040516100709190610528565b60405180910390f35b610093600480360381019061008e91906105e8565b610162565b005b6100af60048036038101906100aa919061063b565b610324565b005b6100b961041b565b73ffffffffffffffffffffffffffffffffffffffff166100d7610139565b73ffffffffffffffffffffffffffffffffffffffff161461012d576040517f08c379a0000000000000000000000000000000000000000000000000000000008152600401610124906106c5565b60405180910390fd5b6101376000610423565b565b60008060009054906101000a900473ffffffffffffffffffffffffffffffffffffffff16905090565b61016a61041b565b73ffffffffffffffffffffffffffffffffffffffff16610188610139565b73ffffffffffffffffffffffffffffffffffffffff16146101de576040517f08c379a00000000000000000000000000000000000000000000000000000000081526004016101d5906106c5565b60405180910390fd5b60008373ffffffffffffffffffffffffffffffffffffffff166370a08231306040518263ffffffff1660e01b81526004016102199190610528565b602060405180830381865afa158015610236573d6000803e3d6000fd5b505050506040513d601f19601f8201168201806040525081019061025a91906106fa565b90508082111561029f576040517f08c379a000000000000000000000000000000000000000000000000000000000815260040161029690610773565b60405180910390fd5b8373ffffffffffffffffffffffffffffffffffffffff1663a9059cbb84846040518363ffffffff1660e01b81526004016102da9291906107a2565b6020604051808303816000875af11580156102f9573d6000803e3d6000fd5b505050506040513d601f19601f8201168201806040525081019061031d9190610803565b5050505050565b61032c61041b565b73ffffffffffffffffffffffffffffffffffffffff1661034a610139565b73ffffffffffffffffffffffffffffffffffffffff16146103a0576040517f08c379a0000000000000000000000000000000000000000000000000000000008152600401610397906106c5565b60405180910390fd5b600073ffffffffffffffffffffffffffffffffffffffff168173ffffffffffffffffffffffffffffffffffffffff160361040f576040517f08c379a0000000000000000000000000000000000000000000000000000000008152600401610406906108a2565b60405180910390fd5b61041881610423565b50565b600033905090565b60008060009054906101000a900473ffffffffffffffffffffffffffffffffffffffff169050816000806101000a81548173ffffffffffffffffffffffffffffffffffffffff021916908373ffffffffffffffffffffffffffffffffffffffff1602179055508173ffffffffffffffffffffffffffffffffffffffff168173ffffffffffffffffffffffffffffffffffffffff167f8be0079c531659141344cd1fd0a4f28419497f9722a3daafe3b4186f6b6457e060405160405180910390a35050565b600073ffffffffffffffffffffffffffffffffffffffff82169050919050565b6000610512826104e7565b9050919050565b61052281610507565b82525050565b600060208201905061053d6000830184610519565b92915050565b600080fd5b600061055382610507565b9050919050565b61056381610548565b811461056e57600080fd5b50565b6000813590506105808161055a565b92915050565b61058f81610507565b811461059a57600080fd5b50565b6000813590506105ac81610586565b92915050565b6000819050919050565b6105c5816105b2565b81146105d057600080fd5b50565b6000813590506105e2816105bc565b92915050565b60008060006060848603121561060157610600610543565b5b600061060f86828701610571565b93505060206106208682870161059d565b9250506040610631868287016105d3565b9150509250925092565b60006020828403121561065157610650610543565b5b600061065f8482850161059d565b91505092915050565b600082825260208201905092915050565b7f4f776e61626c653a2063616c6c6572206973206e6f7420746865206f776e6572600082015250565b60006106af602083610668565b91506106ba82610679565b602082019050919050565b600060208201905081810360008301526106de816106a2565b9050919050565b6000815190506106f4816105bc565b92915050565b6000602082840312156107105761070f610543565b5b600061071e848285016106e5565b91505092915050565b7f496e73756666696369656e742062616c616e6365210000000000000000000000600082015250565b600061075d601583610668565b915061076882610727565b602082019050919050565b6000602082019050818103600083015261078c81610750565b9050919050565b61079c816105b2565b82525050565b60006040820190506107b76000830185610519565b6107c46020830184610793565b9392505050565b60008115159050919050565b6107e0816107cb565b81146107eb57600080fd5b50565b6000815190506107fd816107d7565b92915050565b60006020828403121561081957610818610543565b5b6000610827848285016107ee565b91505092915050565b7f4f776e61626c653a206e6577206f776e657220697320746865207a65726f206160008201527f6464726573730000000000000000000000000000000000000000000000000000602082015250565b600061088c602683610668565b915061089782610830565b604082019050919050565b600060208201905081810360008301526108bb8161087f565b905091905056fea264697066735822122056dbd08be34528052e5830baea4fda17e42aebea41105fab8f160a2d31597a1a64736f6c634300080e0033",
  "immutableReferences": {},
  "source": "// SPDX-License-Identifier: MIT\r\npragma solidity ^0.8.4;\r\n\r\nimport \"@openzeppelin/contracts/access/Ownable.sol\";\r\nimport \"@openzeppelin/contracts/token/ERC20/IERC20.sol\";\r\n\r\ncontract Receiver is Ownable {\r\n  // Transfer the ERC20 token\r\n  function transferERC20(IERC20 token, address to, uint256 value) public onlyOwner {\r\n    uint balance = token.balanceOf(address(this));\r\n    require(value <= balance, \"Insufficient balance!\");\r\n    token.transfer(to, value);\r\n  }\r\n}",
  "sourcePath": "R:\\d\\Erc20ToSmartContract\\contracts\\Receiver.sol",
  "compiler": {
    "name": "solc",
    "version": "0.8.14+commit.80d49f37.Emscripten.clang"
  },
  "schemaVersion": "3.4.7",
  "updatedAt": "2022-06-25T04:21:27.948Z",
  "devdoc": {
    "kind": "dev",
    "methods": {
      "owner()": {
        "details": "Returns the address of the current owner."
      },
      "renounceOwnership()": {
        "details": "Leaves the contract without owner. It will not be possible to call `onlyOwner` functions anymore. Can only be called by the current owner. NOTE: Renouncing ownership will leave the contract without an owner, thereby removing any functionality that is only available to the owner."
      },
      "transferOwnership(address)": {
        "details": "Transfers ownership of the contract to a new account (`newOwner`). Can only be called by the current owner."
      }
    },
    "version": 1
  },
  "userdoc": {
    "kind": "user",
    "methods": {},
    "version": 1
  }
}